:100000000C946B000C9493000C9493000C9493004C
:100010000C9493000C9493000C940C1D0C9493007E
:100020000C9493000C9493000C9493000C94930004
:100030000C9493000C9493000C9493000C949300F4
:100040000C9432080C9493000C94D7010C94090280
:100050000C9493000C9493000C9493000C949300D4
:100060000C9493000C949300361A361A7D1A641A75
:10007000771A361A361A7D1A641A00000008000230
:10008000010000030407000000000000000001025E
:100090000408102040800102040810200102040816
:1000A00010200404040404040404020202020202F4
:1000B00003030303030300000000230026002900BC
:1000C00000000000250028002B0000000000240094
:1000D00027002A00750911241FBECFEFD8E0DEBF2C
:1000E000CDBF11E0A0E0B1E0EAE3FDE402C005907D
:1000F0000D92AA35B107D9F722E0AAE5B1E001C017
:100100001D92AB38B207E1F710E0CBE6D0E004C0B7
:100110002197FE010E942823CA36D107C9F70E9401
:10012000A2090C949B260C94000061E08DE00E94D3
:10013000320161E08DE00E9473018EE390E00E9445
:10014000181060E08DE00E9473018EE390E00E9441
:100150001810EFCF61E083E00E94320161E083E09C
:100160000E94730186E090E00E94181060E083E036
:100170000E9473018CE090E00E941810EFCF26E0FF
:1001800040E855E260E070E08AE591E00E941C07DB
:100190008EE00E94A6074AE050E0BC018AE591E0AB
:1001A0000E94C20481E090E00E941810F1CFFFCFBE
:1001B000EF92FF920F93E12CF12C02E020E030E06F
:1001C00040E850E068E071E085E990E00E948D0A27
:1001D00001E020E030E040E850E06EE071E08FEBBD
:1001E00090E00E948D0A03E020E030E040E850E01B
:1001F00069E171E08AEA90E00E948D0A0F91FF9018
:10020000EF90089508958330E9F038F0873069F071
:10021000883011F1843079F008958130C9F082304E
:1002200081F484B58F7D84BD08958091B0008F776F
:100230008093B0000895809180008F7D809380002E
:1002400008950895809180008F77809380000895AD
:1002500084B58F7784BD08958091B0008F7D8093A1
:10026000B0000895CF93DF9390E0FC01E257FF4F79
:100270002491FC01EE55FF4F84918823B9F090E062
:10028000880F991FFC01E653FF4FA591B491FC0123
:10029000E054FF4FC591D491662359F06230B9F014
:1002A0008FB7F894EC91E22BEC938FBFDF91CF9155
:1002B00008959FB7F8948C91E22FE0958E238C934C
:1002C0002881E223E8839FBFDF91CF9108959FB7F4
:1002D000F8948C91322F309583238C93E881E22B14
:1002E000E8839FBFE3CF1F93CF93DF93282F30E0A6
:1002F000F901E658FF4F8491F901E257FF4F14913D
:10030000F901EE55FF4FC491CC23A9F0D62F8111EE
:100310001BC0EC2FF0E0EE0FFF1FE054FF4FA59144
:10032000B4918FB7F894D1110AC09C91E12FE09558
:10033000E923EC938FBFDF91CF911F910895EC914A
:10034000E12BEC938FBFF7CF0E940301E2CFCF9355
:10035000DF93282F30E0F901E658FF4F8491F9012F
:10036000E257FF4FD491F901EE55FF4FC491CC23D2
:10037000B1F0811119C0EC2FF0E0EE0FFF1FEA542D
:10038000FF4FA591B491EC91ED2381E090E019F03D
:10039000DF91CF91089580E0DF91CF91089580E0C3
:1003A00090E0DF91CF9108950E940301E4CF1F9266
:1003B0000F920FB60F9211242F938F939F93EF9369
:1003C000FF93E0916A01F0916B018081E0917001EF
:1003D000F091710182FF0BC08081FF91EF919F919D
:1003E0008F912F910F900FBE0F901F901895208125
:1003F000809173018F5F8F7390917401891769F3F6
:10040000E0917301F0E0E65AFE4F258F809373016F
:10041000E4CF1F920F920FB60F9211242F933F93A8
:100420004F935F936F937F938F939F93AF93BF93FC
:10043000EF93FF938AE591E00E948806FF91EF9188
:10044000BF91AF919F918F917F916F915F914F91EC
:100450003F912F910F900FBE0F901F9018958AE536
:1004600091E00E943A0621E0892B09F420E0822FD6
:100470000895CF92DF92EF92FF920F931F93CF9345
:10048000DF934115510509F16A018C017B01C0E040
:10049000D0E004C02196CC16DD0669F0D7016D913D
:1004A0007D01D801ED91FC910190F081E02DC80112
:1004B0000995892B79F7CE01DF91CF911F910F918B
:1004C000FF90EF90DF90CF900895C0E0D0E0F3CFA1
:1004D000EF92FF920F931F93CF93DF93FB016491F1
:1004E0006623F1F07F018C01C0E0D0E007C02196C7
:1004F000F701EC0FFD1F6491662351F0D801ED91D7
:10050000FC910190F081E02DC8010995892B79F7C4
:10051000CE01DF91CF911F910F91FF90EF90089541
:10052000C0E0D0E0F5CFDB0114964D915C911597BA
:100530006D917C91DC01ED91FC910280F381E02DC5
:1005400009946115710579F0FB0101900020E9F72C
:100550003197AF01461B570BDC01ED91FC910280F6
:10056000F381E02D099480E090E00895DC01ED91A5
:10057000FC910190F081E02D0994EF92FF920F938E
:100580001F93CF93DF938C017B01FB016491C0E04B
:10059000D0E0611108C011C02196F701EC0FFD1FDA
:1005A0006491662351F0D801ED91FC910190F081A6
:1005B000E02DC8010995892B79F7D801ED91FC91BF
:1005C0000280F381E02D42E050E060E271E0C8017A
:1005D00009958C0F9D1FDF91CF911F910F91FF9077
:1005E000EF900895DB01ED91FC9111970190F0815E
:1005F000E02DBC01CD010994DC01ED91FC9102805C
:10060000F381E02D42E050E060E271E009940F9345
:100610001F93CF93DF93EC01FB01448155816081EF
:100620007181E881F9810280F381E02D09958C01C7
:10063000E881F9810280F381E02D42E050E060E240
:1006400071E0CE010995800F911FDF91CF911F912D
:100650000F9108950F931F93CF93DF93EC016115D2
:10066000710509F1FB0101900020E9F73197AF0115
:10067000461B570BE881F9810280F381E02D099533
:100680008C01E881F9810280F381E02D42E050E0A5
:1006900060E271E0CE010995800F911FDF91CF914B
:1006A0001F910F91089500E010E0EBCF0F931F937F
:1006B000CF93DF93EC01E881F9810190F081E02D87
:1006C00009958C01E881F9810280F381E02D42E0F7
:1006D00050E060E271E0CE010995800F911FDF913B
:1006E000CF911F910F9108950F931F93CF93DF9395
:1006F000EC01CB01DB01ED91FC910190F081E02D4B
:10070000BE0109958C01E881F9810280F381E02D19
:1007100042E050E060E271E0CE010995800F911F48
:10072000DF91CF911F910F9108958F929F92AF9279
:10073000BF92EF92FF920F931F93CF93DF93CDB7AA
:10074000DEB7A1970FB6F894DEBF0FBECDBF7C0118
:10075000FA01CB0119A2223008F446C0822E912C56
:10076000A12CB12C8E010F5D1F4F07C0605DD80119
:100770006C93232B242B252B91F0BF01A501940111
:100780000E940623F901CA01015011096A3074F36D
:10079000695CD8016C93232B242B252B71F7011551
:1007A000110541F1F80101900020E9F73197AF01FF
:1007B000401B510BD701ED91FC910280F381E02D9C
:1007C000B801C7010995A1960FB6F894DEBF0FBE18
:1007D000CDBFDF91CF911F910F91FF90EF90BF9010
:1007E000AF909F908F9008952AE0822E912CA12C9B
:1007F000B12CB8CF80E090E0E6CF2115310511F0A3
:100800000C949503DC01ED91FC910190F081E02DB9
:10081000642F09949A01462F50E060E070E00C9438
:10082000FD030F931F93CF93DF93EC019A01462FA3
:1008300050E060E070E00E94FD038C01E881F981E6
:100840000280F381E02D42E050E060E271E0CE01F1
:100850000995800F911FDF91CF911F910F910895FE
:100860009A01AB0160E070E00C94FD030F931F93BD
:10087000CF93DF93EC019A01AB0160E070E00E943E
:10088000FD038C01E881F9810280F381E02D42E0D3
:1008900050E060E271E0CE010995800F911FDF9179
:1008A000CF911F910F9108950F931F93CF93DF93D3
:1008B000EC010E94FD038C01E881F9810280F38143
:1008C000E02D42E050E060E271E0CE010995800F3A
:1008D000911FDF91CF911F910F910895CF92DF92D9
:1008E000EF92FF920F931F93CF93DF932115310562
:1008F00089F02A30310551F0DF91CF911F910F918E
:10090000FF90EF90DF90CF900C94950377FD12C08D
:100910002AE0F2CFDC01ED91FC910190F081E02D15
:10092000642FDF91CF911F910F91FF90EF90DF9097
:10093000CF9009946A017B01EC01E881F981019073
:10094000F081E02D6DE209958C0144275527BA010D
:100950004C195D096E097F092AE0CE010E949503BA
:10096000800F911FDF91CF911F910F91FF90EF901A
:10097000DF90CF9008959A01AB01770F660B770B4C
:100980000C946E040F931F93CF93DF93EC019A01A5
:10099000AB01770F660B770B0E946E048C01E88128
:1009A000F9810280F381E02D42E050E060E271E0E5
:1009B000CE010995800F911FDF91CF911F910F916B
:1009C00008950F931F93CF93DF93EC010E946E0461
:1009D0008C01E881F9810280F381E02D42E050E052
:1009E00060E271E0CE010995800F911FDF91CF91F8
:1009F0001F910F9108952F923F924F925F927F9295
:100A00008F929F92AF92BF92CF92DF92EF92FF921E
:100A10000F931F93CF93DF938C014A015B01722EDA
:100A20009A01AB01C501B4010E9465258111F6C090
:100A300075016401E894F7F82FEF3FEF4FE75FE7A8
:100A4000C701B6010E94652581110BC02FEF3FEF52
:100A50004FE75FE7C701B6010E949B2318160CF40D
:100A6000B0C02FEF3FEF4FE75FE4C501B4010E9434
:100A7000F32418160CF488C02FEF3FEF4FE75FEC1C
:100A8000C501B4010E949B2387FD7EC020E030E0B9
:100A9000A901C501B4010E949B2387FD9DC0E12CE3
:100AA000F12C772009F4A7C060E070E080E09FE3BC
:100AB000D0E020E030E040E251E40E94A023DF5F7C
:100AC0007D12F7CFA50194010E942F234B015C01F9
:100AD0000E9412241B012C010E9441249B01AC01A5
:100AE000C501B4010E942E234B015C012AE0B20132
:100AF000A101C8010E949503EC01D801ED91FC9180
:100B00000190F081E02D6EE2C80109958C0F9D1FC8
:100B1000EC01CE0DDF1D20E030E040E251E4C501E4
:100B2000B4010E94F8244B015C010E9412246B0165
:100B3000E12CF12C2AE0B701A601C8010E9495031F
:100B4000C80FD91FC701B6010E9441249B01AC0107
:100B5000C501B4010E942E234B015C017A947110EF
:100B6000DACFCE01DF91CF911F910F91FF90EF90DF
:100B7000DF90CF90BF90AF909F908F907F905F90CD
:100B80004F903F902F900895D801ED91FC910280F5
:100B9000F381E02D43E050E06BE271E0C801DF91AA
:100BA000CF911F910F91FF90EF90DF90CF90BF906A
:100BB000AF909F908F907F905F904F903F902F903D
:100BC0000994D801ED91FC910280F381E02D43E07E
:100BD00050E067E271E0E2CFD801ED91FC91019025
:100BE000F081E02D6DE2C80109957C01B7FAB0945F
:100BF000B7F8B09456CF20E030E040E05FE3C501A5
:100C0000B4010E942F230E941224AB01BC012AE0F0
:100C1000C8010E9495038E0D9F1DA4CFD801ED91B0
:100C2000FC910280F381E02D43E050E063E271E04B
:100C3000B5CF0C94FB040F931F93CF93DF93EC017C
:100C40000E94FB048C01E881F9810280F381E02D90
:100C500042E050E060E271E0CE010995800F911F03
:100C6000DF91CF911F910F91089580E090E008955A
:100C700008950895FC01918D228D892F90E0805C6C
:100C80009F4F821B91098F7399270895FC01918DC5
:100C9000828D981731F0828DE80FF11D858D90E0DF
:100CA00008958FEF9FEF0895FC01918D828D981725
:100CB00061F0828DDF01A80FB11D5D968C91928D40
:100CC0009F5F9F73928F90E008958FEF9FEF08953D
:100CD000FC01238D348D231730F4832F90E0821B89
:100CE0009109019708958FE390E0821B9109830F8A
:100CF000911D08958FE292E0892B49F080E090E009
:100D0000892B29F00E942F0281110C940000089574
:100D1000FC01848DDF01A80FB11DA35ABF4F2C9198
:100D2000848D90E001968F739927848FA689B78967
:100D30002C93A089B1898C91837080648C93938D5E
:100D4000848D981308950288F389E02D80818F7D2A
:100D500080830895EF92FF920F931F93CF93DF93B9
:100D6000EC0181E0888F9B8D8C8D981799F1062F6F
:100D7000EB8CF12C8FEFE81AF80A8FE3E822FF24BE
:100D80001E2D03C00FB607FE1CC08C8D1817D1F3A3
:100D90008B8DFE01E80FF11DE35AFF4F00839FB7D3
:100DA000F894EB8EEA89FB898081806280839FBF03
:100DB00081E090E0DF91CF911F910F91FF90EF9034
:100DC0000895E889F989808185FFDFCFCE010E94EF
:100DD0008806DBCFE889F989808185FFC8CF9FB776
:100DE000F894EE89FF896083E889F98980818370AE
:100DF000806480839FBFDCCFCF93DF93EC01888D2D
:100E00008823B9F0EA89FB89A889B989808185FF9F
:100E10000DC00FB607FCFACF808185FFF7CF8C910C
:100E200085FFF4CFCE010E948806ECCF8C9186FF1F
:100E3000F0CFDF91CF910895CF92DF92EF92FF92A2
:100E40001F93CF93DF93EC016A017B01122FE88996
:100E5000F98982E080834115514E61057105B1F039
:100E600060E079E08DE390E0A70196010E940623FF
:100E7000DA01C9010197A109B109B695A79597951E
:100E800087959C01211580E13807A8F0E889F98948
:100E9000108260E874E88EE190E0A70196010E945C
:100EA0000623DA01C9010197A109B109B695A795F1
:100EB000979587959C01EC85FD853083EE85FF85B0
:100EC0002083188EEC89FD891083EA89FB89808153
:100ED00080618083EA89FB89808188608083EA89D8
:100EE000FB89808180688083EA89FB8980818F7D8E
:100EF0008083DF91CF911F91FF90EF90DF90CF9093
:100F00000895CF93DF93EC01E881F9810680F781A2
:100F1000E02D0995EA89FB8980818F7E8083EA89AB
:100F2000FB898081877F8083EA89FB8980818F7735
:100F30008083EA89FB8980818F7D80838A8D898F78
:100F4000DF91CF9108958093000108958E3008F0CD
:100F50008E509091000140E4949F9001112487707D
:100F6000282B20937C0080917A00806480937A0003
:100F700080917A0086FDFCCF809178009091790075
:100F800008951F93CF93DF93182FEB0161E00E9428
:100F90003201209741F1CF3FD10591F0E12FF0E0F0
:100FA000E658FF4FE491E330C1F188F0E73009F4EF
:100FB0004EC0E83039F1E430E9F1C038D1059CF099
:100FC00061E0812FDF91CF911F910C947301E1308B
:100FD00089F0E23091F784B5806284BDC8BDDF91AD
:100FE000CF911F91089560E0812FDF91CF911F91E4
:100FF0000C94730184B5806884BDC7BDDF91CF9127
:101000001F9108958091B00080628093B000C093DA
:10101000B400DF91CF911F91089580918000806886
:1010200080938000D0938900C0938800DF91CF9196
:101030001F91089580918000806280938000D093FA
:101040008B00C0938A00DF91CF911F91089580910A
:10105000B00080688093B000C093B300DF91CF915F
:101060001F9108951F920F920FB60F9211242F9384
:101070003F938F939F93AF93BF938091F70190918C
:10108000F801A091F901B091FA013091FF0123E03C
:10109000230F2D3768F126E8230F0296A11DB11DFD
:1010A0002093FF018093F7019093F801A093F90139
:1010B000B093FA018091FB019091FC01A091FD0198
:1010C000B091FE010196A11DB11D8093FB0190938B
:1010D000FC01A093FD01B093FE01BF91AF919F91E0
:1010E0008F913F912F910F900FBE0F901F901895E9
:1010F0000196A11DB11DD4CF2FB7F8946091F701CF
:101100007091F8018091F9019091FA012FBF089533
:101110003FB7F8948091FB019091FC01A091FD01F3
:10112000B091FE0126B5A89B05C02F3F19F001968E
:10113000A11DB11D3FBFBA2FA92F982F8827820F5D
:10114000911DA11DB11DBC01CD01660F771F881F28
:10115000991F660F771F881F991F08958F929F927E
:10116000AF92BF92CF92DF92EF92FF924B015C0160
:101170009FB7F894C090FB01D090FC01E090FD0176
:10118000F090FE0186B5A89B07C08F3F29F02FEF96
:10119000C21AD20AE20AF20A9FBFFE2CED2CDC2C06
:1011A000CC24C80ED11CE11CF11CCC0CDD1CEE1CA7
:1011B000FF1CCC0CDD1CEE1CFF1C81149104A1044F
:1011C000B10409F43EC00E9470093FB7F8948091C1
:1011D000FB019091FC01A091FD01B091FE0126B5AB
:1011E000A89B05C02F3F19F00196A11DB11D3FBF5F
:1011F000BA2FA92F982F8827820F911DA11DB11DED
:10120000880F991FAA1FBB1F880F991FAA1FBB1FFA
:101210008C199D09AE09BF09883E9340A105B1050F
:1012200090F281E0881A9108A108B10828EEC20E58
:1012300023E0D21EE11CF11C81149104A104B1042D
:1012400021F6FF90EF90DF90CF90BF90AF909F90EE
:101250008F9008958230910538F0880F991F880F7C
:10126000991F05970197F1F70895789484B58260E6
:1012700084BD84B5816084BD85B5826085BD85B53A
:10128000816085BDEEE6F0E0808181608083E1E8E9
:10129000F0E0108280818260808380818160808321
:1012A000E0E8F0E0808181608083E1EBF0E0808124
:1012B00084608083E0EBF0E0808181608083EAE7F6
:1012C000F0E080818460808380818260808380817F
:1012D000816080838081806880831092C10008953E
:1012E000089580E090E008950895EAE5F1E0138222
:1012F000128288EE93E0A0E0B0E084839583A68319
:10130000B7838FE391E09183808385EC90E09587AC
:10131000848784EC90E09787868780EC90E0918BBF
:10132000808B81EC90E0938B828B82EC90E0958BAC
:10133000848B86EC90E0978B868B118E128E138EA9
:10134000148E08950E9435090E940F1D0E94D80036
:10135000CAE7D6E00E9402012097E1F30E947A06D4
:10136000F9CFE0912D02F0912E028081811103C00E
:101370008FEF9FEF09C0E0912D02F0912E020580C2
:10138000F681E02D80819181909304028093030285
:101390000895BF92CF92DF92EF92FF920F931F9327
:1013A000CF93DF93EC01B62EC0900C02D0900D02CB
:1013B00000912D0210912E02E0902B02F0902C0251
:1013C000809165029091660202960E94E322CF3FCF
:1013D0008FEFD807C1F5BB20B1F1E0911002F09179
:1013E0001102A0916502B09166021596FC93EE93EE
:1013F0001497A0916502B091660284819581179639
:101400009C938E9316978091650290916602A481B9
:10141000B581029613969C938E93129780916502E4
:1014200090916602029695838483E0916502F09123
:1014300066028FE092E09387828780910F028F5F30
:1014400080930F022BC0CC0DDD1DE0916502F09161
:101450006602D383C28360916502709166026E5FFB
:101460007F4FCC15DD0560F4C701DF91CF911F914F
:101470000F91FF90EF90DF90CF90BF900C94AB2234
:10148000C8010E94AB228091030290910402C81708
:10149000D90720F4D0930402C0930302DF91CF91C7
:1014A0001F910F91FF90EF90DF90CF90BF90089524
:1014B000CF93DF9380911802882309F10FB6F89437
:1014C0000F92E0911E02F0911F02C681D781CE01DA
:1014D00002960E94E32280910E02815080930E02B8
:1014E000809118028150809318020F900FBE8F894F
:1014F000988D0E945D1DCE010E945D1DDBCFDF91A6
:10150000CF9108950E94580A80914102823010F0D4
:101510000E94C21B0E94201DF5CF5F926F927F92A6
:101520008F929F92AF92BF92CF92DF92EF92FF92F3
:101530000F931F93CF93DF933C016B015A01490135
:10154000502ECA010E944A1D8C01892B09F45FC0EC
:1015500080E390E00E944A1DEC01892BF1F080E3CA
:10156000DE011D928A95E9F7188F0F8BA50165EAB8
:1015700070E0C8010E949426B1E0AB1AB1088F89CF
:10158000988DA80EB91EC114D104C1F0BE01675ECA
:101590007F4FF601C601409607C0C8010E945D1D3D
:1015A00036C0E817F90749F09F014191DB014D93DF
:1015B000BD01D9012C912111F4CF18A6052D0430BD
:1015C00008F003E00E8B09A76E01B2E0CB0ED11C30
:1015D000C6010E948622CE010C960E948622D987DF
:1015E000C88784E090E0801B91099D878C87DB8B06
:1015F000CA8BA401B301C5010E94831B9983888310
:10160000E114F10431F0F701D183C08302C08FEF00
:1016100097C00FB6F8940F9280910E028F5F80935F
:101620000E028091650290916602892BD1F5D093CC
:101630006602C093650280910E02813009F041C0BC
:1016400081E492E00E9478228AE492E00E9478226B
:1016500083E592E00E9478228CE592E00E94782255
:1016600088E392E00E9478228FE292E00E94782242
:1016700082E292E00E94782289E192E00E94782240
:101680008FE092E00E94782288E392E090932E020D
:1016900080932D028FE292E090932C0280932B0294
:1016A00010C080910A0281110CC0E0916502F09196
:1016B000660296898E89891720F0D0936602C093BE
:1016C0006502809105028F5F80930502EE8980910B
:1016D0000B028E1710F4E0930B0289E08E9FF0014D
:1016E0001124EF5BFD4F0180F281E02DFD83EC833F
:1016F000248135813F832E83A481B5811396DC92AA
:10170000CE921297D582C482EE898E9FF001112469
:10171000EF5BFD4FFB87EA8780818F5F80830F90AF
:101720000FBE80910A02882351F0E0916502F0918A
:10173000660296898E89981710F40E94C21B81E078
:10174000DF91CF911F910F91FF90EF90DF90CF909D
:10175000BF90AF909F908F907F906F905F90089513
:101760000F931F93CF93DF93EC010FB6F8940F9272
:10177000892B21F4C0916502D09166028E010E5F23
:101780001F4FC8010E94E3228C899D89892B21F07B
:10179000CE010C960E94E322809105028F5F809318
:1017A0000502809165029091660220910A0222232F
:1017B00079F0C817D90761F4B80189E192E00E9475
:1017C0008A22809118028F5F8093180281E008C0FE
:1017D00080910E02815080930E020E94B10980E038
:1017E0000F900FBE813039F08F89988D0E945D1D5A
:1017F000CE010E945D1D80910A02882349F08091EC
:10180000650290916602C817D90711F40E94C21BA5
:10181000DF91CF911F910F9108950FB6F8940F9219
:10182000009729F4E0916502F091660201C0FC0185
:1018300086890F900FBE0895009729F4E091650204
:10184000F091660201C0FC01868908950FB6F894F4
:101850000F92009729F4E0916502F091660201C0B1
:10186000FC0181A50F900FBE0895009729F4E09127
:101870006502F091660201C0FC0181A50895EF9216
:10188000FF921F93CF93DF93EC01643008F063E085
:101890000FB6F8940F92209721F4C0916502D09171
:1018A000660299A5961709F466C0209165023091E9
:1018B0006602961760F4C217D30769F0E0916502DB
:1018C000F091660211E08689861730F004C011E0BD
:1018D000C217D30709F010E08E89981711F0861708
:1018E00008F46E8B69A72C853D8537FD06C024E082
:1018F00030E0261B31093D872C8729E0829FC001FB
:1019000011248F5B9D4F2A853B852817390781F568
:101910007E0182E0E80EF11CC7010E94E322EE89FD
:1019200080910B028E1710F4E0930B0289E08E9FDA
:10193000F0011124EF5BFD4F0180F281E02DFD836A
:10194000EC83248135813F832E83A481B581139656
:10195000FC92EE921297F582E482EE898E9FF0015E
:101960001124EF5BFD4FFB87EA8780818F5F8083C7
:1019700011110E94C21B0F900FBEDF91CF911F91DA
:10198000FF90EF9008950F931F93CF93DF93EC0197
:101990008091650290916602C817D90709F459C071
:1019A000209709F456C00FB6F8940F928A859B854C
:1019B0008F50924009F04BC08C899D89E2E08232C1
:1019C0009E0709F444C0892B09F041C08FA58130DE
:1019D000F1F18E010E5F1F4FC8010E94E322AE8914
:1019E00080910B028A1710F4A0930B0229E02A9F22
:1019F000D0011124AF5BBD4F11960D90BC91A02D6D
:101A0000BD83AC8314968D919C9115979F838E8393
:101A100014968D919C911597FC0113830283159662
:101A20001C930E9314979E89299FF0011124EF5B5C
:101A3000FD4FFB87EA8780818F5F8083E09165029D
:101A4000F09166028689891710F40E94C21B0F90DC
:101A50000FBEDF91CF911F910F910895EF92FF92EA
:101A60001F93CF93DF93EC018A859B858F50924023
:101A7000B1F48C899D8922E08232920781F0892B12
:101A800071F48FA5813059F080910002882349F0CC
:101A9000BE01645F7F4F82E292E00E948A2210E0E2
:101AA0003EC0E0916502F09166029E8986898917A1
:101AB00028F481E08093070211E001C010E07E016C
:101AC00082E0E80EF11CC7010E94E322EE898091BA
:101AD0000B028E1710F4E0930B0289E08E9FF00149
:101AE0001124EF5BFD4F0180F281E02DFD83EC833B
:101AF000248135813F832E83A481B5811396FC9286
:101B0000EE921297F582E482EE898E9FF001112405
:101B1000EF5BFD4FFB87EA8780818F5F8083812F9A
:101B2000DF91CF911F91FF90EF900895EF92FF9278
:101B30000F93CF93DF93CDB7DEB760970FB6F894CE
:101B4000DEBF0FBECDBFADE4B1E0FE013196BF01F7
:101B50008D918193882321F081E0AD35B807C1F7DD
:101B600081E0E82E82E0F82E00E020E030E040EC5A
:101B700050E082E89AE00E948D0A813099F40E9438
:101B8000811A813079F4F8942FEF3FEF30930402FB
:101B90002093030280930A0210920D0210920C020D
:101BA0000E94DD1C8091070160960FB6F894DEBF9D
:101BB0000FBECDBFDF91CF910F91FF90EF900895B1
:101BC0000E94331B0E94B00B80910102909102028F
:101BD0000E94B00B0E94580AF89410920A020C94CA
:101BE000941B809100028F5F8093000208950FB6CE
:101BF000F8940F9280910C0290910D020F900FBEFD
:101C0000089580910C0290910D02089580910E022A
:101C10000895009721F4809165029091660249969B
:101C20000895CF92DF92EF92FF920F931F93CF937D
:101C3000DF93809100028111E0C0C0910C02D0912D
:101C40000D026E018FEFC81AD80AD0920D02C09211
:101C50000C02C114D104B9F480912D0290912E028E
:101C600020912B0230912C0230932E0220932D02D2
:101C700090932C0280932B02809106028F5F8093B9
:101C800006020E94B1098091030290910402C816D5
:101C9000D90608F49CC080E069E0E0912D02F09143
:101CA0002E029081911103C02FEF3FEF0FC0E09102
:101CB0002D02F0912E020580F681E02D0680F7813D
:101CC000E02D22813381C216D30628F4309304021A
:101CD000209303027DC0C285D3852481358146814E
:101CE0005781D90115965C934E931497468157817D
:101CF000DA0113963C932E9312979F012E5F3F4F6C
:101D000009811A810217130711F45A834983138634
:101D10001286988191509883A489B5891097F9F01B
:101D20004685578500891189EA011D830C83008946
:101D30001189E8015B834A831196ED90FC9012971C
:101D4000AF01445F5F4FE416F50621F412961C9331
:101D50000E931197158A148A9C9191509C93A68991
:101D600090910B029A1710F4A0930B026A9FD00176
:101D70001124AF5BBD4F11960D90BC91A02DB58382
:101D8000A48314964D915C911597578346831496BE
:101D90004D915C911597EA013B832A8315963C93FC
:101DA0002E9314972689629FD0011124AF5BBD4FFB
:101DB000B387A2879C919F5F9C93E0916502F0910D
:101DC00066029689921708F068CF81E066CF80E0BE
:101DD000E0916502F0916602E689D9E0ED9FF0019D
:101DE0001124EF5BFD4F9081923008F081E09091DB
:101DF0000702992361F081E00AC080910802909166
:101E000009020196909309028093080280E0DF9115
:101E1000CF911F910F91FF90EF90DF90CF90089599
:101E2000EF92FF920F931F93CF93DF930FB6F89427
:101E30000F928091000281508093000280910002F5
:101E4000882311F080E0B3C080910E028823D1F383
:101E5000E0902702F0902802E0E0F0E039E041E075
:101E600080912202882309F480C0D7011696ED9153
:101E7000FC911797A489B5896685778580899189B2
:101E8000EB019D838C8380899189EC017B836A833C
:101E9000BF01645F7F4F11960D911C911297061739
:101EA000170721F412969C938E931197158A148A22
:101EB0008C9181508C93A285B385848195816681B4
:101EC0007781EC017D836C8366817781EB019B8355
:101ED0008A83CF01029611960D911C9112970817D3
:101EE000190721F412967C936E931197138612862C
:101EF0002C9121502C93A68920910B022A1710F4C3
:101F0000A0930B023A9FD0011124AF5BBD4F1196F5
:101F10000D90BC91A02DB583A48314966D917C91F6
:101F200015977783668314966D917C911597EB01D5
:101F30009B838A8315969C938E9314979689399FD9
:101F4000D0011124AF5BBD4FB387A2878C918F5F07
:101F50008C93A0916502B091660256968C91891778
:101F600008F07ECF409307027BCFEF2B11F00E9449
:101F7000B109C0910802D0910902209761F011E0E7
:101F80000E94110E8111109307022197C9F7109238
:101F900009021092080280910702882309F452CFA7
:101FA00080916502909166020E94C21B81E00F90B1
:101FB0000FBEDF91CF911F910F91FF90EF90089589
:101FC0000F931F93CF93DF938C01EB010E94F10DD0
:101FD00020910C0230910D02F80140815181CA011B
:101FE0008C0F9D1F2417350728F48417950748F494
:101FF000C1E004C0C1E08417950720F02817390715
:1020000008F0C0E0F80191838083CC2329F060E0E0
:10201000821B930B0E94C9090E94100F811102C0FC
:102020000E94C21B8C2FDF91CF911F910F910895B9
:10203000CF93DF93EC01892B19F40E94C21B0AC0D5
:102040000E94F10D60E0CE010E94C9090E94100FAC
:10205000882399F3DF91CF910895CF93DF93EC011B
:102060000E94F10D0FB6F8940F92809108029091A2
:102070000902C80FD91FD0930902C09308020F901C
:102080000FBEDF91CF910C94100F80910002882336
:1020900021F081E080930702089510920702A09139
:1020A0006502B0916602E0916502F09166022D91A1
:1020B0003C918789908D8217930760F0609165024B
:1020C000709166028091650290916602675E7F4F13
:1020D0000E943C1D80910B0269E0482F50E0649FF4
:1020E0009001659F300D1124F901EF5BFD4F908148
:1020F000911102C08150F1CFA181B28112966D91F0
:102100007C911397728361832C5B3D4F6217730739
:1021100021F4258136813283218399E0949FF00157
:10212000959FF00D1124EF5BFD4F0180F281E02DB2
:1021300026813781309366022093650280930B02DB
:10214000809165029091660208950F931F93CF933B
:10215000DF93EC010FB6F8940F92892B21F4C09114
:102160006502D09166028E010E5F1F4FC8010E946A
:10217000E3228C899D89892B21F0CE010C960E9447
:10218000E322B8018FE092E00E948A228FA581307D
:1021900009F41FA60F900FBE80910A02882339F020
:1021A0000FB6F8940F920E94B1090F900FBE809164
:1021B000650290916602C817D907C1F480910A029E
:1021C000882319F00E94C21B11C080910E029091C9
:1021D0000F02981305C0109266021092650206C0A5
:1021E000DF91CF911F910F910C944510DF91CF910A
:1021F0001F910F910895CF93DF93EB0160916502DA
:1022000070916602645F7F4F0E94AB2261E0CE0155
:10221000DF91CF910C94C909CF93DF93FC01A0917A
:102220006502B091660270681D967C936E931C9750
:10223000A181B281C0916502D0916602BF87AE874D
:10224000C0916502D091660214968D919C9115976C
:10225000998B888B20916502309166021496CD91FE
:10226000DC911597245F3F4F3B832A8320916502C1
:1022700030916602245F3F4F15963C932E9314973E
:10228000A0916502B09166025596FC93EE93549727
:1022900090819F5F908361E0CA01DF91CF910C94A0
:1022A000C9090F931F93CF93DF93FC018B01A18189
:1022B000B2818091650290916602EC01BF87AE8782
:1022C000809165029091660214962D913C9115972C
:1022D000EC01398B288B20916502309166021496AF
:1022E0008D919C911597245F3F4FEC013B832A838E
:1022F0002091650230916602245F3F4F15963C9312
:102300002E931497A0916502B09166025596FC93A6
:10231000EE93549790819F5F9083442311F00FEFC9
:102320001FEF642FC801DF91CF911F910F910C9483
:10233000C909CF93DF93DC011596ED91FC911697B7
:102340000680F781E02DA489B58986859785208947
:102350003189EC013D832C83C089D1899B838A8399
:10236000CF010C9611962D913C91129728173907A1
:1023700021F41296DC93CE931197158A148A2C912E
:1023800021502C932091000221114FC0A285B385CA
:102390008481958126813781EC013D832C83C68120
:1023A000D7819B838A839F012E5F3F4F11968D912A
:1023B0009C9112978217930721F41296DC93CE9387
:1023C0001197138612868C9181508C93A6898091E7
:1023D0000B028A1710F4A0930B0289E08A9FD001A8
:1023E0001124AF5BBD4F11960D90BC91A02DB5830C
:1023F000A48314964D915C91159757834683149648
:10240000CD91DC9115973B832A8315963C932E93AF
:102410001497A6898A9FD0011124AF5BBD4FB38763
:10242000A2878C918F5F8C931FC0A0912302B091E3
:102430002402B787A68714962D913C911597318B6E
:10244000208B1496CD91DC9115979B838A831596EA
:102450009C938E93149782E292E0958B848B80916B
:1024600022028F5F80932202A0916502B0916602E2
:10247000968956968C91891720F481E08093070203
:1024800001C080E0DF91CF910895CF93DF93DC010D
:10249000706811967C936E931696ED91FC91179748
:1024A00018964D915C91199712962D913C91139726
:1024B00014968D919C911597E9019D838C831496B8
:1024C0008D919C911597EC013B832A83EA01298128
:1024D0003A81A217B30711F49A83898319961C9243
:1024E0001E921897DA018C9181508C93A285B38546
:1024F0008481958126813781EC013D832C83C681BF
:10250000D7819B838A83CF01029611962D913C91AE
:1025100012972817390721F41296DC93CE9311975E
:10252000138612862C9121502C93C68920910B0280
:102530002C1710F4C0930B0249E04C9FE0011124CA
:10254000CF5BDD4F0980DA81C02DD583C4832C8118
:102550003D81378326832C813D81D90113969C933D
:102560008E9312979D838C839689499FD001112465
:10257000AF5BBD4FB387A2878C918F5F8C93E09147
:102580006502F09166028689891718F481E08093CC
:102590000702DF91CF9108950FB6F8940F92209122
:1025A0000602FC01208320910C0230910D0232833F
:1025B00021830F900FBE089520910602FC01208315
:1025C00020910C0230910D02328321830895CF9324
:1025D000DF930FB6F8940F9240910C0250910D02C8
:1025E000DB012D913C912F3FBFEF3B07E1F0EC0168
:1025F000E981FA81A0910602B881BA1741F04E171D
:102600005F0728F0FB011182108281E00DC04E1B94
:102610005F0B42175307B0F7FB01241B350B3183C7
:1026200020830E94DC1280E00F900FBEDF91CF91DB
:10263000089581E0809307020895009721F4809126
:10264000650290916602FC012789308DF901CF0166
:10265000821B930B4191453AD1F308958091650215
:10266000909166020895811105C080916502909154
:102670006602089580E090E0089580910A02882320
:1026800031F080910002882321F080E0089581E0FC
:10269000089582E008950F931F93CF93DF93FC0179
:1026A000892B09F46EC08689A0916502B0916602FB
:1026B00056969C91891708F05AC02485358537FDB8
:1026C0000CC0A0916502B091660256969C9124E0E0
:1026D00030E0291B31093587248729E0829FC0011A
:1026E00011248F5B9D4F2285338528173907B1F55B
:1026F000EF018F010E5F1F4FC8010E94E322E0919E
:102700006502F0916602E689EE8B80910B028E17CE
:1027100010F4E0930B0289E08E9FF0011124EF5B2F
:10272000FD4F0180F281E02DFD83EC832481358112
:102730003F832E83A481B58113961C930E93129729
:1027400015830483EE898E9FF0011124EF5BFD4F0A
:10275000FB87EA8780818F5F808307C0A091650235
:10276000B091660256968C91868B81E00BC0A09149
:102770006502B091660281E021A556969C912917C9
:1027800008F080E0DF91CF911F910F9108950F9392
:102790001F93CF93DF93EC01892B11F480E044C0A9
:1027A0008AA581508AA72E8999A52917B9F3811185
:1027B000F5CF8E010E5F1F4FC8010E94E32289A54D
:1027C0008E8B482F50E024E030E0241B350B3D87F2
:1027D0002C8790910B02981710F480930B0289E0DC
:1027E000849FF001859FF00D1124EF5BFD4F018068
:1027F000F281E02DFD83EC83248135813F832E839C
:10280000A481B58113961C930E93129715830483AC
:10281000EE898E9FF0011124EF5BFD4FFB87EA8765
:1028200080818F5F808381E0DF91CF911F910F9135
:1028300008950F931F93CF93DF93FC01892B09F425
:1028400052C091A5961708F4962F8689891709F426
:102850004AC022A5213009F046C0968B24853585D3
:1028600037FD06C024E030E0291B31093587248775
:1028700029E0829FC00111248F5B9D4F2285338503
:102880002817390781F5EF018F010E5F1F4FC8012F
:102890000E94E322EE8980910B028E1710F4E093E0
:1028A0000B0289E08E9FF0011124EF5BFD4F018048
:1028B000F281E02DFD83EC83248135813F832E83DB
:1028C000A481B58113961C930E93129715830483EC
:1028D000EE898E9FF0011124EF5BFD4FFB87EA87A5
:1028E00080818F5F8083DF91CF911F910F91089539
:1028F000E0916502F091660284859585E09165021C
:10290000F0916602A0916502B091660256964C91D4
:1029100024E030E0241B3109358724870895809115
:10292000650290916602009721F0FC0122A52F5FBD
:1029300022A70895CF92DF92EF92FF920F931F93F9
:10294000CF93DF93C82FE62E6A010E94F10D0FB6D8
:10295000F8940F92E0916502F0916602D0E08E014A
:10296000000F111F000F111FE00FF11F83A594A589
:10297000A5A5B6A5892B8A2B8B2B69F4E09165025E
:10298000F0916602EC0FFD1F81E087A7FF24F3940E
:10299000C114D10409F4F12C0F900FBE21E0F21202
:1029A00004C061E0C6010E94C9090E94100F91E0B5
:1029B000F91204C0811102C00E94C21B0FB6F89424
:1029C0000F92E0916502F0916602E00FF11F63A59E
:1029D00074A585A596A56115710581059105C9F0B8
:1029E0002091650230916602F901E00FF11FEE209F
:1029F00029F013A614A615A616A60BC06B017C0120
:102A000021E0C21AD108E108F108C3A6D4A6E5A6C0
:102A1000F6A62091650230916602C20FD31F1FA651
:102A20000F900FBEDF91CF911F910F91FF90EF900C
:102A3000DF90CF9008954F925F926F927F928F9226
:102A40009F92AF92BF92CF92DF92EF92FF920F933D
:102A50001F93CF93DF93C82F2A013B0148015901EF
:102A60000E94F10D0FB6F8940F92E0916502F0917B
:102A70006602D0E0EC0FFD1F87A5823039F1E091AE
:102A80006502F0916602CE01880F991F880F991F89
:102A9000E80FF91F83A594A5A5A5B6A54094509469
:102AA00060947094482259226A227B2243A654A63D
:102AB00065A676A6E0916502F0916602EC0FFD1F17
:102AC00081E087A711E0C114D10409F410E00F9050
:102AD0000FBE113021F461E0C6010E94C9090E94B5
:102AE000100F113021F4811102C00E94C21B0FB6D9
:102AF000F8940F92E114F104A1F0E0916502F091D5
:102B00006602CE01880F991F880F991FE80FF91FE1
:102B100083A594A5A5A5B6A5F70180839183A2837B
:102B2000B383E0916502F0916602EC0FFD1F87A56B
:102B30008230E9F4E0916502F0916602CE01880FDF
:102B4000991F880F991FE80FF91F83A594A5A5A5C4
:102B5000B6A580949094A094B09488229922AA2239
:102B6000BB2283A694A6A5A6B6A681E001C080E0FC
:102B70002091650230916602C20FD31F1FA60F90ED
:102B80000FBEDF91CF911F910F91FF90EF90DF90DB
:102B9000CF90BF90AF909F908F907F906F905F90FD
:102BA0004F9008958F929F92AF92BF92CF92DF92F3
:102BB000EF92FF920F931F93CF93DF93DC010FB639
:102BC000F8940F9270E0E114F10481F0FB01EE0F34
:102BD000FF1FEE0FFF1FE80FF91F83A494A4A5A405
:102BE000B6A4E70188829982AA82BB82FD01E60F22
:102BF000F71F87A592E097A702301105E9F0A8F426
:102C000001301105D9F5660F771F660F771FFD019B
:102C1000E60FF71FC3A4D4A4E5A4F6A4BA01A90142
:102C20004C295D296E297F2916C003301105D9F082
:102C300004301105A9F022C0660F771F660F771FB9
:102C4000FD01E60FF71F43A554A565A576A54F5FC7
:102C50005F4F6F4F7F4F43A754A765A776A70EC05E
:102C6000823009F471C0660F771F660F771FFD0170
:102C7000E60FF71F23A734A745A756A7813009F011
:102C800061C01A96ED91FC911B9714968D919C91C1
:102C9000159716962D913C911797EC013D832C8347
:102CA0001696CD91DC9117979B838A839D012E5FA9
:102CB0003F4F818192818217930711F4D283C183A0
:102CC0001B961C921E921A97808181508083569683
:102CD000CC91569780910B028C1710F4C0930B0285
:102CE00049E04C9FE0011124CF5BDD4F0980DA8180
:102CF000C02D1596DC93CE9314978C819D811796E9
:102D00009C938E9316978C819D81FC013383228343
:102D10003D832C8356969C915697499FF001112430
:102D2000EF5BFD4F1B96FC93EE931A9780818F5FAC
:102D30008083E0916502F09166028689891710F41C
:102D40000E94C21B81E001C080E00F900FBEDF91A6
:102D5000CF911F910F91FF90EF90DF90CF90BF9098
:102D6000AF909F908F9008958F929F92AF92BF9255
:102D7000CF92DF92EF92FF920F931F93CF93DF9347
:102D8000DC0170E0E114F10481F0FB01EE0FFF1FA4
:102D9000EE0FFF1FE80FF91F83A494A4A5A4B6A407
:102DA000E70188829982AA82BB82FD01E60FF71FA4
:102DB00087A592E097A702301105E9F0A8F4013049
:102DC0001105D9F5660F771F660F771FFD01E60F16
:102DD000F71F83A494A4A5A4B6A4BA01A901482905
:102DE00059296A297B2916C003301105D9F004300E
:102DF0001105A9F022C0660F771F660F771FFD012E
:102E0000E60FF71F43A554A565A576A54F5F5F4F55
:102E10006F4F7F4F43A754A765A776A70EC0823098
:102E200009F4A0C0660F771F660F771FFD01E60F3C
:102E3000F71F23A734A745A756A7813011F081E0DB
:102E400092C080910002811158C01A96ED91FC91B8
:102E50001B9714968D919C91159716962D913C91E8
:102E60001797EC013D832C831696CD91DC91179733
:102E70009B838A839D012E5F3F4F818192818217C0
:102E8000930711F4D283C1831B961C921E921A974A
:102E90008081815080835696EC91569780910B02E9
:102EA0008E1710F4E0930B0289E08E9FF00111243D
:102EB000EF5BFD4F0180F281E02D1596FC93EE93C0
:102EC00014974481558117965C934E931697C4814D
:102ED000D5813B832A83358324835696EC9156977C
:102EE0008E9FF0011124EF5BFD4F1B96FC93EE9338
:102EF0001A9780818F5F808321C0E0912302F09137
:102F000024021F96FC93EE931E978481958151961F
:102F10009C938E935097C481D581CD010C969B8351
:102F20008A839583848382E292E055969C938E9364
:102F30005497809122028F5F80932202E091650274
:102F4000F091660256969C918689891708F077CF92
:102F5000C114D10419F081E0F601808381E08093EF
:102F6000070201C080E0DF91CF911F910F91FF9088
:102F7000EF90DF90CF90BF90AF909F908F9008958B
:102F80000F931F93CF93DF93FC01A62FB0E0EC01CA
:102F9000CA0FDB1F8FA592E09FA7AA0FBB1FAA0F26
:102FA000BB1FAE0FBF1F9B960D911D912D913C91A4
:102FB0009E970F5F1F4F2F4F3F4F9B960D931D9373
:102FC0002D933C939E97813009F086C0809100023A
:102FD00081114FC0A285B385848195812681378177
:102FE000EC013D832C83C681D7819B838A839F011B
:102FF0002E5F3F4F11968D919C91129782179307E8
:1030000021F41296DC93CE931197138612868C913D
:1030100081508C93A68980910B028A1710F4A0939B
:103020000B0289E08A9FD0011124AF5BBD4F11963E
:103030000D90BC91A02DB583A48314966D917C91C5
:103040001597778366831496CD91DC9115973B8312
:103050002A8315963C932E931497A6898A9FD001B4
:103060001124AF5BBD4FB387A2878C918F5F8C9388
:1030700021C0A0912302B0912402B787A68714969D
:103080008D919C911597918B808B1496CD91DC91AD
:103090001597CF010C969B838A8315969C938E93EC
:1030A000149782E292E0958B848B809122028F5F4D
:1030B00080932202A0916502B0916602968956968D
:1030C0008C91891748F44115510519F081E0FA01F6
:1030D000808381E080930702DF91CF911F910F9150
:1030E0000895009721F480916502909166020FB6D1
:1030F000F8940F92FC01E60FF11D87A5823019F4B8
:1031000017A681E001C080E00F900FBE0895CF9216
:10311000DF92EF92FF920F931F93009721F480911B
:103120006502909166020FB6F8940F92FC0174E06C
:10313000679FE00DF11D112463A574A585A596A5D3
:10314000C3A4D4A4E5A4F6A489019A01009510951E
:10315000209530950C211D212E213F2103A714A776
:1031600025A736A70F900FBE1F910F91FF90EF90EC
:10317000DF90CF900895109266021092650210922F
:10318000180210920E0210920D0210920C02109270
:103190000B0210920A021092090210920802109279
:1031A0000702109206021092050210920402109279
:1031B00003021092000208950FB6F8940F928091C6
:1031C0006B0290916C02892BE9F48AE792E00E94ED
:1031D000782281E792E00E9478228AE792E0909339
:1031E000700280936F0281E792E090936E02809369
:1031F0006D0240E065E08AE00E946E1E90936C02D2
:1032000080936B020F900FBE0895FC01738362835D
:10321000918780874617570778F0421B530B8485A8
:10322000958548175907C8F4BF016E5F7F4F80919D
:103230006D0290916E020DC04217530718F4621789
:10324000730758F4BF016E5F7F4F80916F029091BA
:1032500070020E94AB2280E0089581E00895EF9211
:10326000FF920F931F93CF93DF93EC018B017A01B1
:103270006C857D85600F711F9801A701CE010E94AA
:103280000519882349F08C859D85080F191FE88949
:10329000F989CE010995ECCFDF91CF911F910F9164
:1032A000FF90EF900895EF92FF920F931F93CF93AB
:1032B000DF938C017B01E0916F02F0917002058039
:1032C000F681E02DC681D781CE0102960E94E322CD
:1032D0008A8982FF06C0A701B801CE010E942F197A
:1032E00002C08E7F8A8BE889F989CE01DF91CF9168
:1032F0001F910F91FF90EF900994E0916F02F09170
:1033000070028081882351F00580F681E02D6FEFF7
:103310007FEF808191810E945319EFCF80916D02E0
:1033200090916E029093700280936F02F0936E0200
:10333000E0936D020895CF93DF9300D000D01F92E9
:10334000CDB7DEB785E0B82ECE0101967C01E091C5
:103350006F02F0917002A080AA2031F00580F68102
:10336000E02D0081118102C000E010E00E94F10D0B
:103370000E94F70D6C018091670290916802C81657
:10338000D90620F40E947D1981E001C080E0D0922E
:103390006802C0926702811124C0AA2051F0C016B1
:1033A000D10670F00E94100FB601C8010E94531997
:1033B0001AC0E0916D02F0916E0241E080818111AE
:1033C00040E0B8016C197D0980916B0290916C020C
:1033D0000E945C220E94100F811105C00E94C21B36
:1033E00002C00E94100FD701EB2D1D92EA95E9F75C
:1033F00040E050E0B70180916B0290916C020E9416
:10340000DE1F882309F4A3CF898187FDF1CF0C81CA
:103410001D81D8011A968D919C911B97892B21F0C3
:10342000C80102960E94E3220E94F70D6C01809170
:10343000670290916802C816D90610F40E947D199F
:10344000D0926802C0926702E9818E2FEE0F990B2D
:10345000AA0BBB0BFC013197E930F10548F6EC5C97
:10346000FF4FD80152968C910C9428238160F8016B
:10347000828B2A813B8164857585620F731FA6014B
:10348000C8010E940519882309F4B2CFD8015296C9
:103490008C91529782FF0DC06A817B811C968D9121
:1034A0009C911D97680F791FA601C8010E942F19D2
:1034B00003C08E7FF801828BD8015096ED91FC916C
:1034C0005197C801099594CF8160D80152968C9389
:1034D00052976A817B811D967C936E931C976C0D2D
:1034E0007D1D9601A601C8010E94051981CF81FDAD
:1034F00004C0C8010E945D1D7BCF8E7FF801828BC6
:1035000077CFEF92FF920F930E94DC1880916B02AD
:1035100090916C02892B81F089E6E82E82E0F82EEA
:1035200003E020E030E04CE550E062E571E08BE93B
:1035300099E10E948D0A01C080E00F91FF90EF9009
:1035400008958F929F92AF92BF92CF92DF92FF9297
:103550000F931F93CF93DF934C015B01F42E69010E
:1035600083E190E00E944A1DEC01892BA1F01A8AA8
:103570000E94DC1899828882BD86AC86DF86CE8662
:10358000198B088BCE0102960E948622FF2019F02B
:103590008A8984608A8BCE01DF91CF911F910F9130
:1035A000FF90DF90CF90BF90AF909F908F90089545
:1035B0000F931F93CF93DF9300D000D01F92CDB70E
:1035C000DEB720916B0230916C02232B11F480E066
:1035D0001AC069835B834A839D838C836630BCF702
:1035E0000E943D13E0916B02F0916C0220E082306A
:1035F00011F4A80102C040E050E0BE016F5F7F4FB0
:10360000CF010E94A91E0F900F900F900F900F9066
:10361000DF91CF911F910F910895CF93DF9300D049
:1036200000D01F92CDB7DEB7FC0180916B02909164
:103630006C02009711F480E00EC069835B834A83BB
:10364000FD83EC836630BCF3A90120E0BE016F5F0F
:103650007F4F0E947B1F0F900F900F900F900F9045
:10366000DF91CF9108958091690290916A02089547
:10367000FC01848595850895FC010FB6F8940F929E
:103680009289662311F0946001C09B7F928B0F900A
:103690000FBE08950FB6F8940F92FC01828982FB49
:1036A000882780F90F900FBE08950C944A1BFC01E7
:1036B000828193810895FC018081918108950FB6E4
:1036C000F8940F92FC0182890F900FBE81700895CB
:1036D0000FB6F8940F92FC01868597850F900FBE68
:1036E00008950FB6F8940F92FC01778766870F90C4
:1036F0000FBE089510926C0210926B0210926A0233
:10370000109269020895FC016083319770833197AC
:103710001082319720E82083319710827797408379
:1037200031975083839708950FB6F894A8958091A8
:103730006000886180936000109260000FBE089561
:10374000CF92DF92EF92FF92603171058105910572
:1037500098F06B017C01DC01CB0124E0B695A795C4
:10376000979587952A95D1F70E941810C701B60141
:103770006F70772788279927FF90EF90DF90CF9081
:103780000C94AE080F920FB6F8940F921F9211246A
:103790002F923F924F925F926F927F928F929F9261
:1037A000AF92BF92CF92DF92EF92FF920F931F934F
:1037B0002F933F934F935F936F937F938F939F9339
:1037C000AF93BF93CF93DF93EF93FF93A0916502E5
:1037D000B09166020DB60D920EB60D920E94451084
:1037E000A0916502B0916602CD91CDBFDD91DEBFA3
:1037F000FF91EF91DF91CF91BF91AF919F918F9109
:103800007F916F915F914F913F912F911F910F91F8
:10381000FF90EF90DF90CF90BF90AF909F908F90F0
:103820007F906F905F904F903F902F901F900F90E0
:103830000FBE0F9008950F920FB6F8940F921F923B
:1038400011242F923F924F925F926F927F928F92AC
:103850009F92AF92BF92CF92DF92EF92FF920F931F
:103860001F932F933F934F935F936F937F938F9308
:103870009F93AF93BF93CF93DF93EF93FF93A09169
:103880006502B09166020DB60D920EB60D920E94C1
:103890004510A0916502B0916602CD91CDBFDD913A
:1038A000DEBFFF91EF91DF91CF91BF91AF919F91DB
:1038B0008F917F916F915F914F913F912F911F91C8
:1038C0000F91FF90EF90DF90CF90BF90AF909F90BF
:1038D0008F907F906F905F904F903F902F901F90B0
:1038E0000F900FBE0F9018950F920FB6F8940F928D
:1038F0001F9211242F923F924F925F926F927F926C
:103900008F929F92AF92BF92CF92DF92EF92FF92EF
:103910000F931F932F933F934F935F936F937F93D7
:103920008F939F93AF93BF93CF93DF93EF93FF93C7
:10393000A0916502B09166020DB60D920EB60D9281
:1039400013BE0E94110E81110E944510A0916502C4
:10395000B0916602CD91CDBFDD91DEBFFF91EF91B9
:10396000DF91CF91BF91AF919F918F917F916F9197
:103970005F914F913F912F911F910F91FF90EF9089
:10398000DF90CF90BF90AF909F908F907F906F907F
:103990005F904F903F902F901F900F900FBE0F9011
:1039A0000895A89590EC88E10FB6F894A8958093B7
:1039B00060000FBE9093600008950E94D11CA091FA
:1039C0006502B0916602CD91CDBFDD91DEBFFF9162
:1039D000EF91DF91CF91BF91AF919F918F917F91A7
:1039E0006F915F914F913F912F911F910F91FF9098
:1039F000EF90DF90CF90BF90AF909F908F907F908F
:103A00006F905F904F903F902F901F900F900FBE40
:103A10000F90089581E008950E94741C18952091DC
:103A20000501309106018FEF98E0821B930B909374
:103A30000201809301010E94D8000E94960D089512
:103A40000E9402018AE796E0892B11F00C947A0615
:103A50000895259A2D9A08951D9A08950E94291D6A
:103A60002FEF80E792E0215080409040E1F700C0C6
:103A700000000E942C1DF4CF0E94291D2FEF87EA21
:103A800091E6215080409040E1F700C000000E9484
:103A90002C1DF4CFCF93DF93EC010E94F10DCE01EA
:103AA0000E946A25EC010E94100F209711F40E94D9
:103AB0002E1DCE01DF91CF910895CF93DF93009714
:103AC00051F0EC010E94F10DCE010E940226DF911F
:103AD000CF910C94100FDF91CF91089508950FB6F8
:103AE000F8940F92FC01928D0F900FBE81E091111E
:103AF00080E008950F931F93CF93DF93EC01042F81
:103B00001A8D4C8D41110BC088819981892BE9F563
:103B10008C819D810E94C7131D821C8237C050E09A
:103B2000011115C08A819B810E948B262C8D8A8170
:103B30009B81820F911D9B838A832C813D818217FB
:103B4000930718F1888199819B838A831EC08E8197
:103B50009F810E948B268C8D90E091958195910993
:103B60002E813F81280F391F3F832E834881598141
:103B70002417350730F42C813D81820F931F9F83DA
:103B80008E83023011F41111115080E01F5F1A8FE3
:103B9000DF91CF911F910F910895FC01CB01448DCE
:103BA0004423A1F050E026813781240F351F37834D
:103BB0002683648175812617370720F020813181A3
:103BC00037832683668177810C948B260895EF9244
:103BD000FF921F93CF93DF93EC010FB6F8940F92EF
:103BE0001E8D7C0181E1E80EF11C11165CF48989BF
:103BF000882341F0C7010E94991181110E94191375
:103C00001150F3CF8FEF8E8F0F900FBE0FB6F89439
:103C10000F921D8D7E0188E0E80EF11C11165CF4F8
:103C20008885882341F0C7010E94991181110E9463
:103C300019131150F3CF8FEF8D8F0F900FBEDF91BF
:103C4000CF911F91FF90EF900895CF93DF9300974E
:103C500009F440C0FC01238D222309F43BC0EC0190
:103C60000FB6F8940F9240815181838D748D9A0123
:103C7000879F200D311D112435832483128E538399
:103C8000428390E00197789F9001799F300D112435
:103C9000CA01820F931F978386838FEF858F868F4C
:103CA00061110CC08085882389F0CF0108960E949D
:103CB0009911882359F00E94C21B08C0CF010896B1
:103CC0000E947822CE0141960E9478220F900FBE6A
:103CD00081E001C080E0DF91CF9108950F931F93A1
:103CE000CF93DF93811103C0C0E0D0E019C0162F3D
:103CF000082F869FC00111244F960E944A1DEC0197
:103D0000009791F3111103C09983888303C04F96E4
:103D1000998388830B8F1C8F61E0CE010E94251E42
:103D2000CE01DF91CF911F910F910895CF938823FA
:103D300061F0861750F0C62F42E060E00E946E1ED0
:103D4000009729F0FC01C28F02C080E090E0CF9183
:103D50000895AF92BF92CF92DF92FF920F931F937D
:103D6000CF93DF9300D000D01F92CDB7DEB78C0188
:103D70006B015D834C83F22E80E0580198E0A90E20
:103D8000B11C0FB6F8940F92F801228D938D29176C
:103D900018F0F2E0FF1214C04F2DB601C8010E94C6
:103DA0007A1DF8019189992321F0C80141960E945A
:103DB000991181110E94C21B0F900FBE81E050C06B
:103DC0002C813D81232B19F40F900FBE48C0811127
:103DD00004C0CE0101960E94DC120F900FBE0E941B
:103DE000F10D0FB6F8940F92F801858D8F3F09F40D
:103DF000158EF801868D8F3F09F4168E0F900FBE39
:103E0000BE016C5F7F4FCE0101960E94E7128111C7
:103E100021C00FB6F8940F92F801928D838D0F9008
:103E20000FBE981311C06C817D81C5010E94FB10EB
:103E3000C8010E94E71D0E94100F882311F081E045
:103E4000A0CF0E94C21BFBCFC8010E94E71D0E94A9
:103E5000100FF5CFC8010E94E71D0E94100F80E0EF
:103E60000F900F900F900F900F90DF91CF911F91B7
:103E70000F91FF90DF90CF90BF90AF900895CF93B8
:103E8000DF93482F60E081E00E946E1EEC010097F6
:103E900061F01D821C82198218821E8220E040E09F
:103EA00050E060E070E00E94A91ECE01DF91CF914A
:103EB00008950F931F93CF93DF93EC010C811D8125
:103EC0000E942E130817190771F48E8181508E837A
:103ED00081110BC020E040E050E060E070E0CE01D6
:103EE0000E94A91E02C080E001C081E0DF91CF9155
:103EF0001F910F910895EF92FF921F93CF93DF933D
:103F0000EC019A8D8B8D981710F0223009F57A010B
:103F10001E8D8A8D422FCE010E947A1D1F3F81F493
:103F20008989882399F0CE0141960E9499118823AE
:103F300069F0E114F10451F081E0F701808309C0D8
:103F40000E94060E181710F41F5F1E8F81E001C03B
:103F500080E0DF91CF911F91FF90EF900895EF9255
:103F6000FF921F93CF93DF93EC018A8D9B8D89176E
:103F7000F0F47B011E8D8F5F8A8F1F3F81F489894A
:103F8000882399F0CE0141960E949911882369F007
:103F9000E114F10451F081E0F701808309C00E942F
:103FA000060E181710F41F5F1E8F81E001C080E01D
:103FB000DF91CF911F91FF90EF900895AF92BF9244
:103FC000CF92DF92FF920F931F93CF93DF9300D096
:103FD00000D01F92CDB7DEB78C016B015D834C839F
:103FE00080E0580191E1A90EB11C0FB6F8940F9230
:103FF000F801F28CFF20A9F0B601C8010E94CD1D86
:10400000FA94F801F28E8085882339F0C801089669
:104010000E94991181110E94C21B0F900FBE81E076
:1040200050C02C813D81232B19F40F900FBE48C046
:10403000811104C0CE0101960E94DC120F900FBEC8
:104040000E94F10D0FB6F8940F92F801858D8F3F05
:1040500009F4158EF801868D8F3F09F4168E0F90A6
:104060000FBEBE016C5F7F4FCE0101960E94E7122A
:1040700081111CC0C8010E946F1D882389F06C81CA
:104080007D81C5010E94FB10C8010E94E71D0E94AE
:10409000100F882311F081E0A8CF0E94C21BFBCF34
:1040A000C8010E94E71D0E94100FF5CFC8010E94B1
:1040B000E71D0E94100FC8010E946F1D882359F34D
:1040C00080E00F900F900F900F900F90DF91CF91A5
:1040D0001F910F91FF90DF90CF90BF90AF90089508
:1040E000CF92DF92FF920F931F93CF93DF9300D075
:1040F00000D01F92CDB7DEB78C017D836C83F12C8D
:1041000090E0680181E1C80ED11C0FB6F8940F92BF
:10411000D8015A968C915A978823E9F081505A9683
:104120008C935A978D919C91892B29F40E948F141E
:10413000F80195838483D80118968C91882339F0EF
:10414000C80108960E94991181110E94C21B0F900C
:104150000FBE81E07AC02C813D81232B09F472C00F
:10416000911104C0CE0101960E94DC120F900FBE87
:104170000E94F10D0FB6F8940F92F801858D8F3FD4
:1041800009F4158ED8015E968C915E978F3F11F4DD
:104190005E961C920F900FBEBE016C5F7F4FCE01EA
:1041A00001960E94E71281112BC0C8010E946F1D69
:1041B000882301F1F80180819181892B51F40FB698
:1041C000F8940F92848195810E944B13F82E0F90E2
:1041D0000FBE6C817D81C6010E94FB10C8010E9448
:1041E000E71D0E94100F882311F091E08ECF0E94EE
:1041F000C21BFBCFC8010E94E71D0E94100FF5CF24
:10420000C8010E94E71D0E94100FC8010E946F1D87
:10421000882359F3FF20C1F00FB6F8940F92F801EC
:104220008189882339F00688F789E02D808164E050
:10423000681B01C060E0D80114968D919C91159780
:104240000E9419140F900FBE80E00F900F900F90F6
:104250000F900F90DF91CF911F910F91FF90DF9002
:10426000CF900895EF92FF920F931F93CF93DF9318
:10427000EC018B01EC80FD800E942E13E816F906FC
:1042800029F48E818F5F8E8381E009C0B801CE0151
:104290000E947020882319F09E819F5F9E83DF918A
:1042A000CF911F910F91FF90EF900895CF92DF92E1
:1042B000EF92FF920F931F93CF93DF9300D000D024
:1042C0001F92CDB7DEB78C017B015D834C8380E00C
:1042D000680191E1C90ED11C0FB6F8940F92F80154
:1042E000928D9923B9F0C680D780B701C8010E948A
:1042F000CD1DF801D782C6828189882339F0C80193
:1043000041960E94991181110E94C21B0F900FBE0D
:1043100081E050C02C813D81232B19F40F900FBEFA
:1043200048C0811104C0CE0101960E94DC120F909A
:104330000FBE0E94F10D0FB6F8940F92F801858D13
:104340008F3F09F4158EF801868D8F3F09F4168E84
:104350000F900FBEBE016C5F7F4FCE0101960E9491
:10436000E71281111CC0C8010E946F1D882389F0CB
:104370006C817D81C6010E94FB10C8010E94E71D6F
:104380000E94100F882311F081E0A6CF0E94C21B6B
:10439000FBCFC8010E94E71D0E94100FF5CFC80196
:1043A0000E94E71D0E94100FC8010E946F1D882304
:1043B00059F380E00F900F900F900F900F90DF91C6
:1043C000CF911F910F91FF90EF90DF90CF900895C4
:1043D000EF92FF920F931F93CF93DF93FC01028D17
:1043E000002309F17A01EC01158D0E94CD1D0150C9
:1043F0000A8F1F3F81F48885882399F0CE010896A3
:104400000E949911882369F0E114F10451F081E0D0
:10441000F701808309C00E94060E181710F41F5F71
:104420001D8F81E001C080E0DF91CF911F910F913E
:10443000FF90EF9008950F931F93CF93DF93FC01AC
:10444000228D222349F0EC01068117810E94CD1DA7
:104450001F830E8381E001C080E0DF91CF911F9127
:104460000F9108950FB6F8940F92FC01828D0F9072
:104470000FBE08950FB6F8940F92FC01228D838D24
:10448000821B0F900FBE0895FC01828D08950C943D
:104490005D1DFC01848D0895FC01838D0895FC0150
:1044A000928D81E0911180E00895FC01928D81E070
:1044B000238D291380E00895CF93DF93EC010FB68D
:1044C000F8940F928D8D8F3F09F41D8E8E8D8F3F46
:1044D00009F41E8E0F900FBE8A8D811104C0CE018B
:1044E00041960E945111CE01DF91CF910C94E71DAE
:1044F000FC010396928381832FEF3FEF3483238364
:10450000968385839087878310820895FC011186A6
:1045100010860895CF93DF939C01FB01DC01119677
:10452000CD91DC911297D383C2838C819D81958339
:1045300084838C819D81DC0113967C936E9312970A
:104540007D836C8331872087F90180818F5F808331
:10455000DF91CF9108950F931F93CF93DF938C0139
:10456000FB01808191818F3F2FEF920721F4E801B9
:10457000AF81B8850EC0D801139612962D913C914B
:104580001397E901488159818417950710F0D901E3
:10459000F4CF12968D919C91139793838283EC01B3
:1045A000FD83EC83B583A4831396FC93EE9312975B
:1045B00011870087F80180818F5F8083DF91CF9121
:1045C0001F910F910895CF93DF93FC01A085B185D2
:1045D0008281938124813581EC013D832C83C481C8
:1045E000D5819B838A8311968D919C911297E817B0
:1045F000F90721F41296DC93CE9311971186108659
:104600008C9181508C93DF91CF910895A1E21A2E65
:10461000AA1BBB1BFD010DC0AA1FBB1FEE1FFF1F66
:10462000A217B307E407F50720F0A21BB30BE40BB6
:10463000F50B661F771F881F991F1A9469F76095FD
:104640007095809590959B01AC01BD01CF010895B7
:10465000EE0FFF1F0590F491E02D09945058BB27F1
:10466000AA270E9446230C94B9240E94AB2438F058
:104670000E94B22420F039F49F3F19F426F40C94E0
:10468000A8240EF4E095E7FB0C94A224E92F0E94E5
:10469000CA2458F3BA17620773078407950720F0F6
:1046A00079F4A6F50C94EC240EF4E0950B2EBA2FB9
:1046B000A02D0B01B90190010C01CA01A001112428
:1046C000FF27591B99F0593F50F4503E68F11A16D4
:1046D000F040A22F232F342F4427585FF3CF469565
:1046E00037952795A795F0405395C9F77EF41F1687
:1046F000BA0B620B730B840BBAF09150A1F0FF0F51
:10470000BB1F661F771F881FC2F70EC0BA0F621F3C
:10471000731F841F48F4879577956795B795F7952C
:104720009E3F08F0B0CF9395880F08F09927EE0FC1
:104730009795879508950E947E2408F481E0089556
:104740000E94B4230C94B9240E94B22458F00E9411
:10475000AB2440F029F45F3F29F00C94A2245111BE
:104760000C94ED240C94A8240E94CA2468F3992385
:10477000B1F3552391F3951B550BBB27AA2762175D
:104780007307840738F09F5F5F4F220F331F441F6A
:10479000AA1FA9F335D00E2E3AF0E0E832D091509E
:1047A0005040E695001CCAF72BD0FE2F29D0660F8B
:1047B000771F881FBB1F261737074807AB07B0E8CE
:1047C00009F0BB0B802DBF01FF2793585F4F3AF0D4
:1047D0009E3F510578F00C94A2240C94ED245F3F89
:1047E000E4F3983ED4F3869577956795B795F7955A
:1047F0009F5FC9F7880F911D9695879597F9089542
:10480000E1E0660F771F881FBB1F621773078407DD
:10481000BA0720F0621B730B840BBA0BEE1F88F7EC
:10482000E09508950E94D22488F09F5798F0B92F00
:104830009927B751B0F0E1F0660F771F881F991FD5
:104840001AF0BA95C9F714C0B13091F00E94EC2467
:10485000B1E008950C94EC24672F782F8827B85F77
:1048600039F0B93FCCF3869577956795B395D9F72D
:104870003EF490958095709561957F4F8F4F9F4F37
:104880000895E89409C097FB3EF490958095709543
:1048900061957F4F8F4F9F4F9923A9F0F92F96E98C
:1048A000BB279395F695879577956795B795F11101
:1048B000F8CFFAF4BB0F11F460FF1BC06F5F7F4F9E
:1048C0008F4F9F4F16C0882311F096E911C07723B0
:1048D00021F09EE8872F762F05C0662371F096E8B9
:1048E000862F70E060E02AF09A95660F771F881F88
:1048F000DAF7880F9695879597F90895990F00082C
:10490000550FAA0BE0E8FEEF16161706E807F907A1
:10491000C0F012161306E407F50798F0621B730B3C
:10492000840B950B39F40A2661F0232B242B252BBD
:1049300021F408950A2609F4A140A6958FEF811D60
:10494000811D089597F99F6780E870E060E0089501
:104950009FEF80EC089500240A9416161706180697
:104960000906089500240A94121613061406050673
:104970000895092E0394000C11F4882352F0BB0F04
:1049800040F4BF2B11F460FF04C06F5F7F4F8F4F67
:104990009F4F089557FD9058440F551F59F05F3FA2
:1049A00071F04795880F97FB991F61F09F3F79F051
:1049B00087950895121613061406551FF2CF4695D3
:1049C000F1DF08C0161617061806991FF1CF869555
:1049D0007105610508940895E894BB276627772739
:1049E000CB0197F908950E947E2408F48FEF089573
:1049F0000E940B250C94B9240E94AB2438F00E942D
:104A0000B22420F0952311F00C94A2240C94A82435
:104A100011240C94ED240E94CA2470F3959FC1F3D5
:104A2000950F50E0551F629FF001729FBB27F00D5C
:104A3000B11D639FAA27F00DB11DAA1F649F6627B1
:104A4000B00DA11D661F829F2227B00DA11D621F00
:104A5000739FB00DA11D621F839FA00D611D221FBA
:104A6000749F3327A00D611D231F849F600D211D9E
:104A7000822F762F6A2F11249F5750409AF0F1F021
:104A800088234AF0EE0FFF1FBB1F661F771F881F8A
:104A900091505040A9F79E3F510580F00C94A224FC
:104AA0000C94ED245F3FE4F3983ED4F3869577951C
:104AB0006795B795F795E7959F5FC1F7FE2B880F30
:104AC000911D9695879597F908950E947E24880BED
:104AD000990B08950F931F93CF93DF938230910525
:104AE00010F482E090E0E0918902F0918A0220E0E7
:104AF00030E0A0E0B0E0309719F1408151810281AF
:104B0000138148175907C8F08417950769F410975F
:104B100031F012960C93129713961C9327C00093B2
:104B2000890210938A0222C02115310519F042171B
:104B3000530718F49A01BD01EF01DF01F801DBCF43
:104B400021153105F9F0281B390B2430310580F48B
:104B50008A819B816115710521F0FB01938382831A
:104B600004C090938A0280938902FE01329644C069
:104B7000FE01E20FF31F8193919322503109398393
:104B800028833AC02091870230918802232B41F478
:104B90002091030130910401309388022093870211
:104BA00020910101309102012115310541F42DB709
:104BB0003EB74091050150910601241B350BE09151
:104BC0008702F0918802E217F307A0F42E1B3F0B37
:104BD0002817390778F0AC014E5F5F4F241735076F
:104BE00048F04E0F5F1F50938802409387028193D5
:104BF000919302C0E0E0F0E0CF01DF91CF911F91EF
:104C00000F910895CF93DF93009709F481C0FC01C1
:104C1000329713821282A0918902B0918A02109772
:104C200081F420813181820F931F2091870230917E
:104C300088022817390751F5F0938802E09387021C
:104C400067C0ED0120E030E0CE17DF0740F44A8175
:104C50005B819E0141155105F1F0EA01F5CFD38347
:104C6000C28340815181840F951FC817D90759F419
:104C700088819981840F951F0296918380838A8110
:104C80009B81938382832115310529F4F0938A0255
:104C9000E09389023DC0E901FB83EA834991599180
:104CA000C40FD51FEC17FD0761F480819181840F3B
:104CB000951F0296E90199838883828193819B8362
:104CC0008A83E0E0F0E012968D919C911397009713
:104CD00019F0FD01DC01F7CF8D919C9111979D0199
:104CE0002E5F3F4F820F931F2091870230918802E1
:104CF0002817390769F4309729F410928A02109224
:104D0000890202C013821282B0938802A0938702A4
:104D1000DF91CF910895FB01DC0102C001900D925B
:104D200041505040D8F70895DC0101C06D934150C7
:0A4D30005040E0F70895F894FFCF1B
:104D3A000100008B02200003426C696E6B00416E19
:104D4A00616C6F67526561640042757A7A657200B8
:104D5A000D0A006E616E00696E66006F766600006D
:104D6A00000000D70039027109740900000000AA86
:104D7A000639026806FC063A065406460649444CB9
:0A4D8A004500546D7220537663005B
:00000001FF
